S02200005333324B3134345F426C696E6B4C45445F4578657263697365322E7372656379
S113A0000070002015A500007DA500007DA50000BE
S113A0107DA500007DA500007DA5000000000000D6
S113A0200000000000000000000000007DA500000A
S113A0307DA50000000000007DA500007DA50000B6
S113A0407DA500007DA500007DA500007DA5000084
S113A0507DA500007DA500007DA500007DA5000074
S113A0607DA500007DA500007DA500007DA5000064
S113A0707DA500007DA500007DA500007DA5000054
S113A3F07DA500007DA500007DA50000FFFFFFFFF7
S113A400FFFFFFFFFFFFFFFFFFFFFFFFFE7FFFFFD9
S113A4100348044B834202D0034B03B118477047EF
S113A4206084FF1F6084FF1F000000000548064B86
S113A4301B1AD90F01EBA301491002D0034B03B13E
S113A440184770476084FF1F6084FF1F00000000EE
S113A45010B5064C237843B9FFF7DAFF044B13B168
S113A4600448AFF300800123237010BD00000020D6
S113A4700000000088AA000008B5044B1BB1044981
S113A4800448AFF30080BDE80840CFE700000000B7
S113A4900400002088AA0000A3F5803A704700BF9A
S113A4A0174B002B08BF134B9D46FFF7F5FF002108
S113A4B08B460F461348144A121A00F0CBFA0E4B7F
S113A4C0002B00D098470D4B002B00D0984700205C
S113A4D0002104000D000D48002802D00C48AFF301
S113A4E0008000F093FA2000290000F019FA00F02F
S113A4F079FA00BF0000080000000000000000001E
S113A50000700020000000201C000020000000005B
S113A5100000000072B64FF000014FF000024FF04F
S113A52000034FF000044FF000054FF000064FF019
S113A5300007B846B946BA46BB46BC460A490B4A68
S113A540521A013A05DD0020042308601944043A34
S113A550FBDA07488546074880470748804762B6C4
S113A560FFF79EFFFEE700000080FF1F0070002041
S113A57000700020A9A6000081A50000FFF7FEBF1F
S113A58080B48FB000AF394B3B63394B3B62394BDE
S113A5907B61394BFB62394BFB61394B3B61394B76
S113A5A0BB62394BFB60394B7B62394BBB61394B26
S113A5B0BB6009E03B6A1A783B6B1A703B6B013352
S113A5C03B633B6A01333B627A693B6A9A42F1D14D
S113A5D009E0FB691A78FB6A1A70FB6A0133FB62B3
S113A5E0FB690133FB613A69FB699A42F1D105E0E9
S113A5F0BB6A00221A70BB6A0133BB62FA68BB6A89
S113A6009A42F5D109E0BB691A787B6A1A70BB6972
S113A6100133BB617B6A01337B62BA68BB699A42CE
S113A620F1D10023FB711C4A1C4B9A4216D0002323
S113A6307B630AE0194A7B6B52F8232016497B6B33
S113A64041F823207B6B01337B63154B9B087A6BAA
S113A6509A42EFD3134B104A1A6002E0114B0F4A8F
S113A6601A6000BF3C37BD4680BC70470084FF1FA2
S113A670B0AA000010AB00006084FF1F10AB000004
S113A68010AB0000000000201C000020000000208F
S113A69010AB000010AB00000080FF1F00A0000002
S113A6A00004000008ED00E080B400AF084B094A44
S113A6B05A60074B5B68064B42F220121A60044B47
S113A6C04FF6FF729A6000BFBD4680BC704700BF62
S113A6D00020054020C528D980B584B000AF78603B
S113A6E039600023FB607B681F2B05D800F078F8E5
S113A6F0786800F085F802E06FF00603FB60FB6801
S113A70018461037BD4680BD80B584B000AF786070
S113A7100B46FB700023FB607B681F2B13D8FB7870
S113A720002B02D0012B05D009E00021786800F04D
S113A73087F80BE00121786800F082F806E06FF0FA
S113A7400403FB6002E06FF00603FB60FB6818463D
S113A7501037BD4680BD80B483B000AF78600B462F
S113A760FB706FF0030318460C37BD4680BC70477E
S113A77080B483B000AF78600B46FB706FF00303C6
S113A78018460C37BD4680BC704780B483B000AF18
S113A79078600B46FB706FF0030318460C37BD4618
S113A7A080BC704780B582B000AF786039607B6848
S113A7B01F2B05D83B68DBB21946786800F066F8B1
S113A7C000BF0837BD4680BD80B483B000AF786059
S113A7D06FF0030318460C37BD4680BC7047000079
S113A7E080B400AF054BD3F83031044A43F08043C2
S113A7F0C2F8303100BFBD4680BC704700500640EF
S113A80080B483B000AF78600C4A7B6852F8233080
S113A8100A4923F4E0627B6841F82320074A7B68F5
S113A82052F82330054943F480727B6841F82320B1
S113A83000BF0C37BD4680BC704700BF00C0044059
S113A84080B483B000AF78600B46FB70FB78012BBB
S113A8500AD10D4B5B6901217A6801FA02F21146B3
S113A860094A0B4353610AE0074B5B6901217A688B
S113A87001FA02F2D2431146034A0B40536100BF6E
S113A8800C37BD4680BC7047C0F00F4080B483B025
S113A89000AF78600B46FB70FB78012B0AD10D4B9F
S113A8A05B6801217A6801FA02F21146094A0B43F6
S113A8B0536009E0074B9B6801217A6801FA02F2B0
S113A8C01146044A0B43936000BF0C37BD4680BC5D
S113A8D0704700BFC0F00F4080B485B000AF78600F
S113A8E00023FB600023BB600023FB600DE000231A
S113A8F0BB6002E0BB680133BB60BB6841F28732D6
S113A9009342F7D9FB680133FB60FA687B689A428B
S113A910EDD300BF00BF1437BD4680BC70470000B4
S113A92080B500AF2E4B1B6800210F2098472C4B9D
S113A9301B68002110209847294B1B680021002028
S113A9409847274B5B6801210F209847244B5B688D
S113A950012110209847224B5B6801210020984771
S113A9601F4B5B6901210F2098471D4B5B69012137
S113A970102098471A4B5B69012100209847184B17
S113A9805B6900210F209847154B5B69012110205A
S113A9909847134B5B6901210020984740F6B83073
S113A9A0FFF79AFF0E4B5B6901210F2098470C4B70
S113A9B05B6900211020984740F6B830FFF78CFF00
S113A9C0074B5B69012110209847054B5B69002107
S113A9D00020984740F6B830FFF77EFFCFE700BF6E
S113A9E068AA000008B5074B044613B10021AFF371
S113A9F00080054B1868836A03B19847204600F02D
S113AA0031F800BF0000000084AA000070B50D4DAD
S113AA100D4C641BA4100026A64209D10B4D0C4C0E
S113AA2000F032F8641BA4100026A64205D170BDC4
S113AA3055F8043B98470136EEE755F8043B984730
S113AA400136F2E7A8AA0000A8AA0000A8AA0000FC
S113AA50ACAA000002440346934200D1704703F8B5
S113AA60011BF9E7FEE70000D9A6000009A70000D2
S113AA7057A7000071A700008BA70000A5A700003E
S113AA80C9A700000084FF1FF8B500BFF8BC08BCCC
S113AA909E467047F8B500BFF8BC08BC9E46704798
S10BAAA0F8F9FF7F010000003A
S107AAA879A4000089
S107AAAC51A40000AD
S113AAB00000000000000000000000000000000092
S113AAC00000000000000000000000000000000082
S113AAD00000000000000000000000000000000072
S113AAE00000000000000000000000000000000062
S113AAF00000000000000000000000000000000052
S113AB000000000000000000000000000000000041
S903A51542
